:020000040800F2
:1000000000280020110200086102000861020008B7
:10001000610200086102000861020008000000009F
:100020000000000000000000000000006102000865
:10003000610200080000000061020008610200087F
:100040006102000861020008610200086102000804
:1000500061020008610200086502000889020008C8
:10006000AD020008D1020008F50200086102000894
:1000700061020008610200086102000861020008D4
:1000800061020008610200086102000861020008C4
:1000900061020008610200086102000819030008FB
:1000A00061020008610200086102000861020008A4
:1000B0006102000861020008610200086102000894
:1000C0006102000861020008610200086102000884
:1000D00061020008090B00081D0B0008310B000825
:1000E000C10300086102000800000000610200086E
:1000F0006102000861020008610200086102000854
:100100006102000861020008610200086102000843
:100110006102000861020008610200086102000833
:100120006102000861020008610200086102000823
:1001300010B5054C237833B9044B13B10448AFF321
:1001400000800123237010BD00000020000000008B
:100150008C0B000808B5034B1BB103490348AFF3F0
:10016000008008BD00000000040000208C0B000887
:1001700080B400AF0A4B9B69094A43F004039361C2
:10018000074B9B69064A43F008039361044B9B6944
:10019000034A43F00103936100BFBD4680BC704732
:1001A0000010024080B586B000AFFFF7E1FF4FF4CA
:1001B000E133BB600023FB7300233B7400237B61AE
:1001C00000237B7300233B730023BB730C233B7121
:1001D0003B1D1946084800F091FA074800F056FB0D
:1001E00000220649044800F023FC0022034902488B
:1001F00000F0D4FBF4E700BF0038014028000020E5
:1002000080B500AFFFF7CEFF0023184680BD000089
:100210000D488546AFF300800C480D490D4A002378
:1002200002E0D458C4500433C4188C42F9D30A4AAB
:100230000A4C002301E013600432A242FBD300F019
:1002400081FCFFF7DDFFFEE7002800200000002012
:1002500000000020C40B00080000002068000020FF
:10026000FEE7000080B500AF054B5B69044A43F030
:1002700001035361034B1B68984700BF80BD00BF5B
:10028000000401402C00002080B500AF054B5B69E5
:10029000044A43F002035361034B5B68984700BF75
:1002A00080BD00BF000401402C00002080B500AFDD
:1002B000054B5B69044A43F004035361034B9B689D
:1002C000984700BF80BD00BF000401402C00002003
:1002D00080B500AF054B5B69044A43F008035361E6
:1002E000034BDB68984700BF80BD00BF000401409E
:1002F0002C00002080B500AF054B5B69044A43F039
:1003000010035361034B1B69984700BF80BD00BFBA
:10031000000401402C00002080B500AF264B5B6933
:1003200003F02003002B08D0234B5B69224A43F0E3
:1003300020035361214B5B6998471F4B5B6903F0B6
:100340004003002B08D01C4B5B691B4A43F0400361
:1003500053611A4B9B699847174B5B6903F0800305
:10036000002B08D0144B5B69134A43F080035361A0
:10037000124BDB699847104B5B6903F48073002BC9
:1003800008D00D4B5B690C4A43F4807353610B4BEF
:100390001B6A9847084B5B6903F40073002B08D075
:1003A000054B5B69044A43F400735361034B5B6A7A
:1003B000984700BF80BD00BF000401402C00002012
:1003C00080B500AF2D4B5B6903F48063002B08D030
:1003D0002A4B5B69294A43F480635361284B9B6A2B
:1003E0009847264B5B6903F40063002B08D0234B2E
:1003F0005B69224A43F400635361214BDB6A9847EF
:100400001E4B5B6903F48053002B08D01B4B5B69C8
:100410001A4A43F480535361194B1B6B9847174B8F
:100420005B6903F40053002B08D0144B5B69134A3B
:1004300043F400535361124B5B6B98470F4B5B695E
:1004400003F48043002B08D00C4B5B690B4A43F448
:10045000804353610A4B9B6B9847084B5B6903F4DD
:100460000043002B08D0054B5B69044A43F400436A
:100470005361034BDB6B984700BF80BD0004014014
:100480002C00002080B483B000AF0346FB80FB88C3
:10049000802B42D0802B11DC082B36D0082B06DCB9
:1004A000022B2ED0042B2ED0012B28D047E0202B5E
:1004B0002FD0402B2FD0102B29D040E0B3F5006F68
:1004C00033D0B3F5006F09DCB3F5007F29D0B3F565
:1004D000806F28D0B3F5807F21D030E0B3F5005F86
:1004E00027D0B3F5005F03DCB3F5805F1FD026E0B3
:1004F000B3F5804F1FD0B3F5004F1ED01FE000238F
:100500001EE004231CE008231AE00C2318E010234B
:1005100016E0142314E0182312E01C2310E000233B
:100520000EE004230CE008230AE00C2308E010236B
:1005300006E0142304E0182302E01C2300E000235B
:1005400018460C37BD4680BC704790B585B000AFEB
:10055000786039600023BB600023FB733B681B8815
:10056000FF2B01D87B6801E07B680433BB603B68EC
:100570001B881846FFF786FF03461A460F23934051
:10058000DA43BB681B681A40BB681A603B689B78FB
:10059000072B0BD03B689B78062B07D03B689B78DA
:1005A000042B03D03B689B78052B0ED13B689B78CE
:1005B000043B9B005AB23B68DB785BB213435BB2EF
:1005C000DBB203F00F03FB732CE03B689B78002B3E
:1005D00003D03B689B78012B07D13B689B789B003D
:1005E000DBB203F00F03FB731CE03B689B78082B26
:1005F00002D10423FB7315E00823FB733B689B784F
:10060000022B07D17B68DB683A6812881A437B6843
:10061000DA6007E07B68DB683A681288D2431A40E8
:100620007B68DA60FC7B3B681B881846FFF72AFF73
:10063000034604FA03F2BB681B681A43BB681A60DE
:1006400000BF1437BD4690BD80B400AF0A4B5B6855
:100650009B0803F00303012B06D0012B02D3022BCE
:1006600004D005E0054B03E0054B01E0044BFFE738
:100670001846BD4680BC70470010024000127A0048
:100680000024F40080B500AFFFF7DEFF0146054B04
:100690005B681B0903F00F03034AD35C21FA03F3E1
:1006A000184680BD00100240AC0B000880B500AFBA
:1006B000FFF7E8FF0146054B5B681B0A03F00703E1
:1006C000034AD35C21FA03F3184680BD00100240B0
:1006D000A40B000880B500AFFFF7D4FF0146054B1F
:1006E0005B68DB0A03F00703034AD35C21FA03F3D8
:1006F000184680BD00100240A40B000880B584B0ED
:1007000000AF786039607B68594A934209D1594BF0
:100710009B69584A43F480439361574A3B6813608E
:100720001AE07B68554A934209D1524BDB69514A22
:1007300043F40033D361504A3B6853600CE07B685C
:100740004F4A934208D14B4BDB694A4A43F480231A
:10075000D361494A3B6893607B68DB6843F400528D
:100760007B68DA607B68DB683A6812781A437B68DA
:10077000DA607B68DB683A68127A1A437B68DA6071
:100780007B68DB683A68527A1A437B68DA607B6878
:100790001B693A68927A1A437B681A617B685B69C5
:1007A0003A68D27A1A437B685A617B68304A93422E
:1007B00003D1FFF78FFFF86002E0FFF777FFF860E3
:1007C0003B685B681B01FA68B2FBF3F31901FA6836
:1007D00013469B0013449A001A443B685B689B00D5
:1007E000B2FBF3F23B685B681B01F868B0FBF3F304
:1007F000642000FB03F3D31A1B01224AA2FB03234C
:100800005B0903F00F030B43BB607B68BA689A6017
:100810003B681B7B002B26D07B68DB683A68127B29
:100820001A437B68DA607B68114A934206D1164B03
:100830001B68154A43F02003136014E07B680F4ADD
:10084000934206D1104B1B680F4A43F040031360DC
:1008500009E07B680A4A934205D10B4B1B680A4AA0
:1008600043F08003136000BF1037BD4680BD00BF5A
:1008700000380140001002401C00002000440040ED
:10088000004800401F85EB5104E100E080B584B0D2
:1008900000AF78607B683B4A934218D14FF40073F5
:1008A000BB810623BB730123FB7307F10C031946BD
:1008B0003548FFF74AFE4FF48063BB810823BB73C2
:1008C00007F10C0319463048FFF73FFE55E07B68FF
:1008D0002E4A934225D10423BB810623BB730123F7
:1008E000FB7307F10C0319462748FFF72EFE082378
:1008F000BB810823BB7307F10C0319462248FFF79D
:1009000024FE234B5B68DB7A002B36D00123BB81AE
:100910000123BB7307F10C0319461B48FFF715FEB3
:100920002BE07B681B4A934227D14FF48063BB8145
:100930000623BB730123FB7307F10C03194616480A
:10094000FFF703FE4FF40063BB810823BB7307F17D
:100950000C0319461048FFF7F8FD0D4B9B68DB7A36
:10096000002B0AD04FF40053BB810123BB7307F166
:100970000C0319460848FFF7E8FD00BF1037BD46D5
:1009800080BD00BF00380140000801400044004025
:100990001C00002000480040000C014080B485B0DD
:1009A00000AFF860B9601346FB71FB79002B06D1EC
:1009B00000BFFB681B6803F08003002BF9D0FB68C5
:1009C000174A93420AD1174B1B681B7A002B22D17E
:1009D000BB681B88DAB2FB685A601CE0FB68124AED
:1009E00093420AD10F4B5B681B7A002B13D1BB6873
:1009F0001B88DAB2FB685A600DE0FB680B4A934231
:100A000009D1084B9B681B7A002B04D1BB681B885B
:100A1000DAB2FB685A6000BF1437BD4680BC70472D
:100A2000003801401C000020004400400048004005
:100A300080B485B000AFF860B9601346FB71FB79F4
:100A4000002B06D100BFFB681B6803F02003002BBE
:100A5000F9D0FB68284A934215D1284B1B685B7A72
:100A6000002B07D1FB685B689BB2DBB29AB2BB6814
:100A70001A803BE0FB685B689BB203F07F039AB28D
:100A8000BB681A8032E0FB681D4A934215D11B4BAC
:100A90005B685B7A002B07D1FB685B689BB2DBB2BB
:100AA0009AB2BB681A8021E0FB685B689BB203F0D6
:100AB0007F039AB2BB681A8018E0FB68114A934220
:100AC00014D10E4B9B685B7A002B07D1FB685B68E7
:100AD0009BB2DBB29AB2BB681A8007E0FB685B6826
:100AE0009BB203F07F039AB2BB681A8000BF143731
:100AF000BD4680BC704700BF003801401C0000208C
:100B0000004400400048004080B500AF024B1B6825
:100B10001B69984700BF80BD1C00002080B500AF56
:100B2000024B5B681B69984700BF80BD1C0000201A
:100B300080B500AF024B9B681B69984700BF80BD22
:100B40001C00002070B500250C4E0D4CA41BA410F9
:100B5000A54209D100F01AF800250A4E0A4CA41B40
:100B6000A410A54205D170BD56F82530984701352F
:100B7000EEE756F8253098470135F2E7BC0B000840
:100B8000BC0B0008BC0B0008C00B0008F8B500BF88
:100B9000F8BC08BC9E467047F8B500BFF8BC08BC5E
:040BA0009E467047B6
:100BA4000000000001020304000000000000000037
:080BB400010203040607080911
:040BBC0055010008D7
:040BC00031010008F7
:0400000508000211DC
:00000001FF
