:020000040800F2
:10000000002800207D050008CD050008CD0500086A
:10001000CD050008CD050008CD0500080000000052
:10002000000000000000000000000000CD050008F6
:10003000CD05000800000000CD050008CD05000832
:10004000CD050008CD050008CD050008CD05000848
:10005000CD050008CD050008410900086509000824
:1000600089090008AD090008D1090008CD0500087C
:10007000CD050008CD050008CD050008CD05000818
:10008000CD050008CD050008CD050008CD05000808
:10009000CD050008CD050008CD050008F5090008CC
:1000A000CD050008CD050008CD050008CD050008E8
:1000B000CD050008CD050008CD050008CD050008D8
:1000C000CD050008CD050008CD050008CD050008C8
:1000D000CD050008CD050008CD050008CD050008B8
:1000E0009D0A0008CD05000800000000CD050008AD
:1000F000CD050008CD050008CD050008CD05000898
:10010000CD050008CD050008CD050008CD05000887
:10011000CD050008CD050008CD050008CD05000877
:10012000CD050008CD050008CD050008CD05000867
:1001300010B5054C237833B9044B13B10448AFF321
:1001400000800123237010BD00000020000000008B
:10015000B80D000808B5034B1BB103490348AFF3C2
:10016000008008BD0000000004000020B80D000859
:1001700080B485B000AF78600023FB600BE0002303
:10018000BB6002E0BB680133BB60BB68FE2BF9D9E2
:10019000FB680133FB60FA687B689A42EFD300BFCB
:1001A0001437BD4680BC704780B500AF524B4FF44A
:1001B00080721A80504B04229A704F4B0122DA70E1
:1001C0004D494E4800F02FFD4B4B4FF400721A8002
:1001D000494B04229A70484B0122DA70464947483D
:1001E00000F021FD444B4FF480621A80424B042200
:1001F0009A70414B0122DA703F49404800F013FDEC
:100200003D4B01221A803C4B04229A703A4B01224A
:10021000DA703949394800F006FD374B02221A805E
:10022000354B04229A70344B0122DA70324933483C
:1002300000F0F9FC304B04221A802F4B04229A70F4
:100240002D4B0122DA702C492C4800F0ECFC2A4B93
:1002500008221A80284B04229A70274B0122DA7058
:100260002549264800F0DFFC234B10221A80224B40
:1002700004229A70204B0122DA701F491F4800F0B7
:10028000D2FC1D4B20221A801B4B04229A701A4B61
:100290000122DA701849194800F0C5FC164B4022BB
:1002A0001A80154B04229A70134B0122DA701249FE
:1002B000124800F0B8FC104B80221A800E4B04222A
:1002C0009A700D4B0122DA700B490C4800F0ABFC20
:1002D00000224FF48061094800F024FD00224FF411
:1002E0008071064800F01EFD00224FF400710348A3
:1002F00000F018FD00BF80BD200000200008014074
:1003000080B500AF012000F057F800BF80BD0000AD
:1003100080B500AF01224FF48061074800F002FD74
:100320003220FFF725FF00224FF48061024800F0E1
:10033000F9FC00BF80BD00BF0008014080B582B05D
:1003400000AF03460A46FB711346BB71FB79012BD4
:1003500008D1BB790F2B05D8BB79803BDBB218469F
:1003600000F02AF8FB79022B08D1BB790F2B05D8B6
:10037000BB79403BDBB2184600F01EF800BF0837DF
:10038000BD4680BD80B500AF1420FFF7F1FEFFF73A
:100390000BFF0F20FFF7ECFEFFF7B2FF382000F055
:1003A0000BF8062000F008F8802000F005F80F2078
:1003B00000F002F800BF80BD80B582B000AF0346F8
:1003C000FB71FB799BB219460B4800F0C2FC00227E
:1003D0004FF40071084800F0A5FC00224FF4807132
:1003E000054800F09FFC0120FFF7C2FEFFF790FFD9
:1003F00000BF0837BD4680BD0008014080B582B00F
:1004000000AF0346FB71FB799BB219460B4800F025
:10041000A0FC00224FF40071084800F083FC012288
:100420004FF48071054800F07DFC0120FFF7A0FE2D
:10043000FFF76EFF00BF0837BD4680BD00080140D2
:1004400080B584B000AF78600023FB601CE0FB68DF
:100450000133FB607B685A1C7A601B781846FFF7F3
:10046000CDFFFB68102B04D100210220FFF766FFAF
:100470000AE0FB68202B07D1FFF742FF0021012093
:10048000FFF75CFF0023FB607B681B78002BDED14D
:1004900000BF1037BD4680BD80B485B000AF786026
:1004A0000023FB600BE00023BB6002E0BB6801336C
:1004B000BB60BB68FE2BF9D9FB680133FB607B682E
:1004C000FA689A42EFD300BF1437BD4680BC70472C
:1004D00080B500AF044B01221A70FFF711FF0348EB
:1004E000FFF7AEFF00BF80BD1C000020D00D00084C
:1004F00080B586B000AF1C4B9B691B4A43F00403D8
:100500009361194B9B69184A43F008039361164B9A
:100510009B69154A43F001039361FFF733FFFFF72F
:10052000EFFE124A3B1D07CA83E8070000233B7415
:100530000F4B7B6101237B743B1D184600F0F4F9DF
:100540000C4B01221A700B4B1B78002B07D0FFF7C6
:10055000D7FE0948FFF774FF064B00221A704FF4CC
:10056000FA70FFF799FFEEE700100240FC0D00085B
:10057000D10400081C000020EC0D00080D48854641
:10058000AFF300800C480D490D4A002302E0D45817
:10059000C4500433C4188C42F9D30A4A0A4C0023CD
:1005A00001E013600432A242FBD300F0E1FBFFF74D
:1005B0009FFFFEE700280020000000200000002030
:1005C000100E00080000002060000020FEE7000080
:1005D00080B483B000AF0346FB80FB880F2B54D858
:1005E00001A252F823F000BF2906000837060008D0
:1005F0004506000853060008610600086F0600085B
:100600006F0600086F0600086F0600086F060008F6
:100610007D0600087D0600087D0600087D060008AE
:100620007D0600087D0600081A4B1B68194A43F036
:100630004003136029E0174B1B68164A43F0800300
:10064000136022E0134B1B68124A43F4807313605B
:100650001BE0104B1B680F4A43F40073136014E057
:100660000C4B1B680B4A43F4806313600DE0094B8D
:100670001B68084A43F40003136006E0064B1B683E
:10068000054A43F48073136000BF00BF0C37BD46BA
:1006900080BC704700E100E004E100E080B483B07A
:1006A00000AF0346FB80FB880F2B54D801A252F801
:1006B00023F000BFF5060008030700081107000833
:1006C0001F0700082D0700083B0700083B0700082C
:1006D0003B0700083B0700083B07000849070008E4
:1006E00049070008490700084907000849070008AA
:1006F000490700081A4B1B68194A43F0400313606E
:1007000029E0174B1B68164A43F08003136022E070
:10071000134B1B68124A43F4807313601BE0104BA9
:100720001B680F4A43F40073136014E00C4B1B6802
:100730000B4A43F4806313600DE0094B1B68084AC1
:1007400043F40003136006E0064B1B68054A43F4BC
:100750008073136000BF00BF0C37BD4680BC70477C
:1007600080E100E084E100E080B584B000AF786013
:100770007B681B893B810123BB727B685B6807F147
:1007800008021146184600F04EFA7B681B889B0849
:100790009BB2FB737B681B88DBB203F00303DBB205
:1007A0009B00BB735A4AFB7B023352F82320BB7B6E
:1007B0000F2101FA03F3DB4318465549FB7B024046
:1007C000023341F823207B685B68524A93420BD086
:1007D0007B685B68504A934204D07B684F4A5A60FA
:1007E000022302E0012300E00023BA7B03FA02F1B6
:1007F000474AFB7B023352F8232008464449FB7BDF
:100800000243023341F82320454B9B687A681288E3
:10081000114601228A40D2431146414A0B4093605F
:100820003F4BDB687A681288114601228A40D24326
:1008300011463B4A0B40D3607B681B7B002B0BD1DE
:10084000374B9B687A681288114601228A4011460C
:10085000334A0B43936029E07B681B7B012B0BD150
:100860002F4BDB687A681288114601228A401146B4
:100870002B4A0B43D36019E07B681B7B022B15D1FD
:10088000274B9B687A681288114601228A401146DC
:10089000234A0B439360224BDB687A681288114627
:1008A00001228A4011461E4A0B43D3607B681B8895
:1008B00019467B681B691B4A42F821307B685B7BC9
:1008C000012B10D1164B1B687A6812881146012241
:1008D0008A401146124A0B4313607B681B881846F6
:1008E000FFF776FE10E00E4B1B687A6812881146FF
:1008F00001228A40D2431146094A0B4013607B68AB
:100900001B881846FFF7CAFE00BF1037BD4680BDE2
:100910000000014000080140000C014000100140AF
:10092000000401402400002080B582B000AF786050
:100930007868FFF719FF00BF0837BD4680BD00008B
:1009400080B500AF054B5B69044A43F00103536176
:10095000034B1B68984700BF80BD00BF00040140E7
:100960002400002080B500AF054B5B69044A43F0CA
:1009700002035361034B5B68984700BF80BD00BF13
:10098000000401402400002080B500AF054B5B69E6
:10099000044A43F004035361034B9B68984700BF2C
:1009A00080BD00BF000401402400002080B500AFDE
:1009B000054B5B69044A43F008035361034BDB6852
:1009C000984700BF80BD00BF000401402400002004
:1009D00080B500AF054B5B69044A43F010035361D7
:1009E000034B1B69984700BF80BD00BF0004014056
:1009F0002400002080B500AF264B5B6903F0200384
:100A0000002B08D0234B5B69224A43F0200353613B
:100A1000214B5B6998471F4B5B6903F04003002B38
:100A200008D01C4B5B691B4A43F0400353611A4BCF
:100A30009B699847174B5B6903F08003002B08D034
:100A4000144B5B69134A43F080035361124BDB691B
:100A50009847104B5B6903F48073002B08D00D4B53
:100A60005B690C4A43F4807353610B4B1B6A9847D4
:100A7000084B5B6903F40073002B08D0054B5B69DE
:100A8000044A43F400735361034B5B6A984700BF09
:100A900080BD00BF000401402400002080B500AFED
:100AA0002D4B5B6903F48063002B08D02A4B5B69F4
:100AB000294A43F480635361284B9B6A9847264B2D
:100AC0005B6903F40063002B08D0234B5B69224A67
:100AD00043F400635361214BDB6A98471E4B5B690B
:100AE00003F48053002B08D01B4B5B691A4A43F474
:100AF00080535361194B1B6B9847174B5B6903F489
:100B00000053002B08D0144B5B69134A43F4005385
:100B10005361124B5B6B98470F4B5B6903F4804347
:100B2000002B08D00C4B5B690B4A43F480435361A4
:100B30000A4B9B6B9847084B5B6903F40043002BFF
:100B400008D0054B5B69044A43F400435361034BEF
:100B5000DB6B984700BF80BD0004014024000020EB
:100B600080B483B000AF0346FB80FB88802B42D06B
:100B7000802B11DC082B36D0082B06DC022B2ED064
:100B8000042B2ED0012B28D047E0202B2FD0402B38
:100B90002FD0102B29D040E0B3F5006F33D0B3F540
:100BA000006F09DCB3F5007F29D0B3F5806F28D042
:100BB000B3F5807F21D030E0B3F5005F27D0B3F5E7
:100BC000005F03DCB3F5805F1FD026E0B3F5804FF4
:100BD0001FD0B3F5004F1ED01FE000231EE00423FA
:100BE0001CE008231AE00C2318E0102316E014235D
:100BF00014E0182312E01C2310E000230EE004236D
:100C00000CE008230AE00C2308E0102306E014237C
:100C100004E0182302E01C2300E0002318460C37F0
:100C2000BD4680BC704790B585B000AF7860396034
:100C30000023BB600023FB733B681B88FF2B01D89C
:100C40007B6801E07B680433BB603B681B88184607
:100C5000FFF786FF03461A460F239340DA43BB682B
:100C60001B681A40BB681A603B689B78072B0BD047
:100C70003B689B78062B07D03B689B78042B03D0FE
:100C80003B689B78052B0ED13B689B78043B9B000F
:100C90005AB23B68DB785BB213435BB2DBB203F062
:100CA0000F03FB732CE03B689B78002B03D03B6861
:100CB0009B78012B07D13B689B789B00DBB203F04C
:100CC0000F03FB731CE03B689B78082B02D10423C5
:100CD000FB7315E00823FB733B689B78022B07D15D
:100CE0007B68DB683A6812881A437B68DA6007E041
:100CF0007B68DB683A681288D2431A407B68DA6006
:100D0000FC7B3B681B881846FFF72AFF034604FA62
:100D100003F2BB681B681A43BB681A6000BF143734
:100D2000BD4690BD80B483B000AF78600B467B8039
:100D300013467B707B78002B03D07A887B681A611E
:100D400002E07A887B685A6100BF0C37BD4680BCE0
:100D5000704780B483B000AF78600B467B807A88A0
:100D60007B68DA6000BF0C37BD4680BC704700006E
:100D700070B500250C4E0D4CA41BA410A54209D142
:100D800000F01AF800250A4E0A4CA41BA410A54234
:100D900005D170BD56F8253098470135EEE756F875
:100DA000253098470135F2E7080E0008080E0008C4
:100DB000080E00080C0E0008F8B500BFF8BC08BC0F
:100DC0009E467047F8B500BFF8BC08BC9E46704709
:100DD000495251204558544939206861732068614F
:100DE0007070656E6564205F7C2D00004B686C6FD1
:100DF0007564204D6F68616D656400000900000036
:080E0000000C01400002170084
:040E08005501000888
:040E0C0031010008A8
:040000050800057D6D
:00000001FF
