:020000040800F2
:1000000000280020A9020008F9020008F9020008EF
:10001000F9020008F9020008F902000800000000D7
:10002000000000000000000000000000F9020008CD
:10003000F902000800000000F9020008F9020008B7
:10004000F9020008F9020008F9020008F9020008A4
:10005000F9020008F9020008FD0200082103000867
:1000600045030008690300088D030008F902000831
:10007000F9020008F9020008F9020008F902000874
:10008000F9020008F9020008F9020008F902000864
:10009000F9020008F9020008F9020008B10300089B
:1000A000F9020008F9020008F9020008F902000844
:1000B000F9020008F9020008F9020008F902000834
:1000C000F9020008F9020008F9020008F902000824
:1000D000F9020008F9020008F9020008F902000814
:1000E00059040008F902000800000000F9020008A5
:1000F000F9020008F9020008F9020008F9020008F4
:10010000F9020008F9020008F9020008F9020008E3
:10011000F9020008F9020008F9020008F9020008D3
:10012000F9020008F9020008F9020008F9020008C3
:1001300010B5054C237833B9044B13B10448AFF321
:1001400000800123237010BD00000020000000008B
:100150007807000808B5034B1BB103490348AFF308
:10016000008008BD0000000004000020780700089F
:1001700080B400AF074B9B69064A43F004039361C8
:10018000044B9B69034A43F00803936100BFBD46DB
:1001900080BC70470010024080B582B000AF0223DF
:1001A000BB800123BB713B1D1946144800F019FAAE
:1001B0004FF40053BB800123BB713B1D19460F4810
:1001C00000F00FFA0223BB800423BB710123FB71F3
:1001D0003B1D19460A4800F004FA4FF40053BB8057
:1001E0000423BB710123FB713B1D1946044800F039
:1001F000F8F900BF0837BD4680BD00BF00080140C8
:10020000000C014080B485B000AF78600023FB6033
:100210000BE00023BB6002E0BB680133BB60BB683E
:10022000FE2BF9D9FB680133FB607B68FA689A42C0
:10023000EFD300BF1437BD4680BC704780B500AF18
:10024000FFF796FFFFF7A8FF0221114800F048FAD8
:100250000346002B0BD102210E4800F058FA00BFD4
:1002600002210B4800F03CFA0346002BF8D04FF473
:100270000051074800F034FA0346012B04D14FF433
:100280000051044800F043FA6420FFF7BBFFDBE7AE
:1002900000080140000C014080B500AFFFF7CEFF21
:1002A0000023184680BD00000D488546AFF300804E
:1002B0000C480D490D4A002302E0D458C4500433C1
:1002C000C4188C42F9D30A4A0A4C002301E0136097
:1002D0000432A242FBD300F02BFAFFF7DDFFFEE76A
:1002E00000280020000000200000002098070008DF
:1002F0000000002058000020FEE7000080B500AF9D
:10030000054B5B69044A43F001035361034B1B68CF
:10031000984700BF80BD00BF000401401C000020C2
:1003200080B500AF054B5B69044A43F0020353619B
:10033000034B5B68984700BF80BD00BF00040140CD
:100340001C00002080B500AF054B5B69044A43F0F8
:1003500004035361034B9B68984700BF80BD00BFF7
:10036000000401401C00002080B500AF054B5B6914
:10037000044A43F008035361034BDB68984700BF0E
:1003800080BD00BF000401401C00002080B500AF0C
:10039000054B5B69044A43F010035361034B1B692F
:1003A000984700BF80BD00BF000401401C00002032
:1003B00080B500AF264B5B6903F02003002B08D00B
:1003C000234B5B69224A43F020035361214B5B6955
:1003D00098471F4B5B6903F04003002B08D01C4B70
:1003E0005B691B4A43F0400353611A4B9B69984772
:1003F000174B5B6903F08003002B08D0144B5B693B
:10040000134A43F080035361124BDB699847104B4A
:100410005B6903F48073002B08D00D4B5B690C4AB9
:1004200043F4807353610B4B1B6A9847084B5B691D
:1004300003F40073002B08D0054B5B69044A43F4B6
:1004400000735361034B5B6A984700BF80BD00BFD8
:10045000000401401C00002080B500AF2D4B5B69FB
:1004600003F48063002B08D02A4B5B69294A43F4CC
:1004700080635361284B9B6A9847264B5B6903F462
:100480000063002B08D0234B5B69224A43F40063CE
:100490005361214BDB6A98471E4B5B6903F4805321
:1004A000002B08D01B4B5B691A4A43F480535361FD
:1004B000194B1B6B9847174B5B6903F40053002BD8
:1004C00008D0144B5B69134A43F400535361124B39
:1004D0005B6B98470F4B5B6903F48043002B08D09C
:1004E0000C4B5B690B4A43F4804353610A4B9B6B93
:1004F0009847084B5B6903F40043002B08D0054B79
:100500005B69044A43F400435361034BDB6B984738
:1005100000BF80BD000401401C00002080B483B0F7
:1005200000AF0346FB80FB88802B42D0802B11DC80
:10053000082B36D0082B06DC022B2ED0042B2ED015
:10054000012B28D047E0202B2FD0402B2FD0102B71
:1005500029D040E0B3F5006F33D0B3F5006F09DC6C
:10056000B3F5007F29D0B3F5806F28D0B3F5807F35
:1005700021D030E0B3F5005F27D0B3F5005F03DC96
:10058000B3F5805F1FD026E0B3F5804F1FD0B3F5E1
:10059000004F1ED01FE000231EE004231CE00823B0
:1005A0001AE00C2318E0102316E0142314E018239B
:1005B00012E01C2310E000230EE004230CE00823CB
:1005C0000AE00C2308E0102306E0142304E01823BB
:1005D00002E01C2300E0002318460C37BD4680BC17
:1005E000704790B585B000AF786039600023BB607C
:1005F0000023FB733B681B88FF2B01D87B6801E05D
:100600007B680433BB603B681B881846FFF786FF96
:1006100003461A460F239340DA43BB681B681A400F
:10062000BB681A603B689B78072B0BD03B689B78B4
:10063000062B07D03B689B78042B03D03B689B7844
:10064000052B0ED13B689B78043B9B005AB23B685C
:10065000DB785BB213435BB2DBB203F00F03FB73D7
:100660002CE03B689B78002B03D03B689B78012BE8
:1006700007D13B689B789B00DBB203F00F03FB7351
:100680001CE03B689B78082B02D10423FB7315E028
:100690000823FB733B689B78022B07D17B68DB68E0
:1006A0003A6812881A437B68DA6007E07B68DB6887
:1006B0003A681288D2431A407B68DA60FC7B3B6858
:1006C0001B881846FFF72AFF034604FA03F2BB68AB
:1006D0001B681A43BB681A6000BF1437BD4690BD43
:1006E00080B485B000AF78600B467B807B689A68E9
:1006F0007B881340002B02D00123FB7301E0002311
:10070000FB73FB7B18461437BD4680BC704780B432
:1007100083B000AF78600B467B807B68DA687B88AB
:100720005A407B68DA6000BF0C37BD4680BC70471A
:1007300070B500250C4E0D4CA41BA410A54209D188
:1007400000F01AF800250A4E0A4CA41BA410A5427A
:1007500005D170BD56F8253098470135EEE756F8BB
:10076000253098470135F2E7900700089007000808
:100770009007000894070008F8B500BFF8BC08BC53
:100780009E467047F8B500BFF8BC08BC9E4670474F
:040790005501000807
:040794003101000827
:04000005080002A944
:00000001FF
