S014000054696D65725F4472697665722E7372656344
S11300000C942A000C943C000C943C000C943C008E
S11300100C943C000C943C000C943C000C943C006C
S11300200C943C000C943C000C94D1000C94AA0059
S11300300C943C000C943C000C943C000C943C004C
S11300400C943C000C943C000C943C000C943C003C
S11300500C943C0011241FBECFE5D8E0DEBFCDBF19
S113006020E0A0E6B0E001C01D92A936B207E1F796
S11300700E9453000C94F8000C94000080916000DE
S113008090916100019690936100809360008135A6
S11300909F4041F498B381E0892788BB10926100A6
S11300A0109260000895CF93DF9300D000D01F9288
S11300B0CDB7DEB787B3816087BB84E60E94A80012
S11300C088E0898382E08A8381E08B838EE390E0F9
S11300D09D838C83CE0101960E946F00FFCFCF9346
S11300E0DF93EC0185E0FE01A4E6B0E001900D92FF
S11300F08A95E1F793B78881892B83BF88818837F4
S113010011F0883619F487B3886087BB93B7898167
S1130110892B83BF89818650823018F487B38E7F00
S113012087BB99B78A81892B89BF8A81882321F06B
S11301308FB780688FBF03C08FB78F778FBF8B81D6
S11301409C819093630080936200DF91CF91089526
S11301508CBF08951F920F920FB60F9211242F9304
S11301603F934F935F936F937F938F939F93AF933B
S1130170BF93EF93FF93E0916200F09163000995C0
S1130180FF91EF91BF91AF919F918F917F916F916B
S11301905F914F913F912F910F900FBE0F901F9041
S11301A018951F920F920FB60F9211242F933F931D
S11301B04F935F936F937F938F939F93AF93BF936B
S11301C0EF93FF93E0916200F09163000995FF9132
S11301D0EF91BF91AF919F918F917F916F915F91BB
S11301E04F913F912F910F900FBE0F901F90189534
S10701F0F894FFCFAD
S9030000FC
